{
    "_format": "hh-sol-artifact-1",
    "contractName": "SmartMatrixForsage",
    "sourceName": "contracts/SmartMatrixForsage.sol",
    "abi": [
        {
            "inputs": [
                {
                    "internalType": "address",
                    "name": "ownerAddress",
                    "type": "address"
                }
            ],
            "stateMutability": "nonpayable",
            "type": "constructor"
        },
        {
            "anonymous": false,
            "inputs": [
                {
                    "indexed": true,
                    "internalType": "address",
                    "name": "receiver",
                    "type": "address"
                },
                {
                    "indexed": true,
                    "internalType": "address",
                    "name": "from",
                    "type": "address"
                },
                {
                    "indexed": false,
                    "internalType": "uint8",
                    "name": "matrix",
                    "type": "uint8"
                },
                {
                    "indexed": false,
                    "internalType": "uint8",
                    "name": "level",
                    "type": "uint8"
                }
            ],
            "name": "MissedEthReceive",
            "type": "event"
        },
        {
            "anonymous": false,
            "inputs": [
                {
                    "indexed": true,
                    "internalType": "address",
                    "name": "user",
                    "type": "address"
                },
                {
                    "indexed": true,
                    "internalType": "address",
                    "name": "referrer",
                    "type": "address"
                },
                {
                    "indexed": false,
                    "internalType": "uint8",
                    "name": "matrix",
                    "type": "uint8"
                },
                {
                    "indexed": false,
                    "internalType": "uint8",
                    "name": "level",
                    "type": "uint8"
                },
                {
                    "indexed": false,
                    "internalType": "uint8",
                    "name": "place",
                    "type": "uint8"
                }
            ],
            "name": "NewUserPlace",
            "type": "event"
        },
        {
            "anonymous": false,
            "inputs": [
                {
                    "indexed": true,
                    "internalType": "address",
                    "name": "user",
                    "type": "address"
                },
                {
                    "indexed": true,
                    "internalType": "address",
                    "name": "referrer",
                    "type": "address"
                },
                {
                    "indexed": true,
                    "internalType": "uint256",
                    "name": "userId",
                    "type": "uint256"
                },
                {
                    "indexed": false,
                    "internalType": "uint256",
                    "name": "referrerId",
                    "type": "uint256"
                }
            ],
            "name": "Registration",
            "type": "event"
        },
        {
            "anonymous": false,
            "inputs": [
                {
                    "indexed": true,
                    "internalType": "address",
                    "name": "user",
                    "type": "address"
                },
                {
                    "indexed": true,
                    "internalType": "address",
                    "name": "currentReferrer",
                    "type": "address"
                },
                {
                    "indexed": true,
                    "internalType": "address",
                    "name": "caller",
                    "type": "address"
                },
                {
                    "indexed": false,
                    "internalType": "uint8",
                    "name": "matrix",
                    "type": "uint8"
                },
                {
                    "indexed": false,
                    "internalType": "uint8",
                    "name": "level",
                    "type": "uint8"
                }
            ],
            "name": "Reinvest",
            "type": "event"
        },
        {
            "anonymous": false,
            "inputs": [
                {
                    "indexed": true,
                    "internalType": "address",
                    "name": "from",
                    "type": "address"
                },
                {
                    "indexed": true,
                    "internalType": "address",
                    "name": "receiver",
                    "type": "address"
                },
                {
                    "indexed": false,
                    "internalType": "uint8",
                    "name": "matrix",
                    "type": "uint8"
                },
                {
                    "indexed": false,
                    "internalType": "uint8",
                    "name": "level",
                    "type": "uint8"
                }
            ],
            "name": "SentExtraEthDividends",
            "type": "event"
        },
        {
            "anonymous": false,
            "inputs": [
                {
                    "indexed": true,
                    "internalType": "address",
                    "name": "user",
                    "type": "address"
                },
                {
                    "indexed": true,
                    "internalType": "address",
                    "name": "referrer",
                    "type": "address"
                },
                {
                    "indexed": false,
                    "internalType": "uint8",
                    "name": "matrix",
                    "type": "uint8"
                },
                {
                    "indexed": false,
                    "internalType": "uint8",
                    "name": "level",
                    "type": "uint8"
                }
            ],
            "name": "Upgrade",
            "type": "event"
        },
        {
            "inputs": [],
            "name": "LAST_LEVEL",
            "outputs": [
                {
                    "internalType": "uint8",
                    "name": "",
                    "type": "uint8"
                }
            ],
            "stateMutability": "view",
            "type": "function"
        },
        {
            "inputs": [
                {
                    "internalType": "address",
                    "name": "",
                    "type": "address"
                }
            ],
            "name": "balances",
            "outputs": [
                {
                    "internalType": "uint256",
                    "name": "",
                    "type": "uint256"
                }
            ],
            "stateMutability": "view",
            "type": "function"
        },
        {
            "inputs": [
                {
                    "internalType": "uint8",
                    "name": "matrix",
                    "type": "uint8"
                },
                {
                    "internalType": "uint8",
                    "name": "level",
                    "type": "uint8"
                }
            ],
            "name": "buyNewLevel",
            "outputs": [],
            "stateMutability": "payable",
            "type": "function"
        },
        {
            "inputs": [
                {
                    "internalType": "address",
                    "name": "userAddress",
                    "type": "address"
                },
                {
                    "internalType": "uint8",
                    "name": "level",
                    "type": "uint8"
                }
            ],
            "name": "findFreeX3Referrer",
            "outputs": [
                {
                    "internalType": "address",
                    "name": "",
                    "type": "address"
                }
            ],
            "stateMutability": "view",
            "type": "function"
        },
        {
            "inputs": [
                {
                    "internalType": "address",
                    "name": "userAddress",
                    "type": "address"
                },
                {
                    "internalType": "uint8",
                    "name": "level",
                    "type": "uint8"
                }
            ],
            "name": "findFreeX6Referrer",
            "outputs": [
                {
                    "internalType": "address",
                    "name": "",
                    "type": "address"
                }
            ],
            "stateMutability": "view",
            "type": "function"
        },
        {
            "inputs": [
                {
                    "internalType": "uint256",
                    "name": "",
                    "type": "uint256"
                }
            ],
            "name": "idToAddress",
            "outputs": [
                {
                    "internalType": "address",
                    "name": "",
                    "type": "address"
                }
            ],
            "stateMutability": "view",
            "type": "function"
        },
        {
            "inputs": [
                {
                    "internalType": "address",
                    "name": "user",
                    "type": "address"
                }
            ],
            "name": "isUserExists",
            "outputs": [
                {
                    "internalType": "bool",
                    "name": "",
                    "type": "bool"
                }
            ],
            "stateMutability": "view",
            "type": "function"
        },
        {
            "inputs": [],
            "name": "lastUserId",
            "outputs": [
                {
                    "internalType": "uint256",
                    "name": "",
                    "type": "uint256"
                }
            ],
            "stateMutability": "view",
            "type": "function"
        },
        {
            "inputs": [
                {
                    "internalType": "uint8",
                    "name": "",
                    "type": "uint8"
                }
            ],
            "name": "levelPrice",
            "outputs": [
                {
                    "internalType": "uint256",
                    "name": "",
                    "type": "uint256"
                }
            ],
            "stateMutability": "view",
            "type": "function"
        },
        {
            "inputs": [],
            "name": "owner",
            "outputs": [
                {
                    "internalType": "address",
                    "name": "",
                    "type": "address"
                }
            ],
            "stateMutability": "view",
            "type": "function"
        },
        {
            "inputs": [
                {
                    "internalType": "address",
                    "name": "referrerAddress",
                    "type": "address"
                }
            ],
            "name": "registrationExt",
            "outputs": [],
            "stateMutability": "payable",
            "type": "function"
        },
        {
            "inputs": [
                {
                    "internalType": "uint256",
                    "name": "",
                    "type": "uint256"
                }
            ],
            "name": "userIds",
            "outputs": [
                {
                    "internalType": "address",
                    "name": "",
                    "type": "address"
                }
            ],
            "stateMutability": "view",
            "type": "function"
        },
        {
            "inputs": [
                {
                    "internalType": "address",
                    "name": "",
                    "type": "address"
                }
            ],
            "name": "users",
            "outputs": [
                {
                    "internalType": "uint256",
                    "name": "id",
                    "type": "uint256"
                },
                {
                    "internalType": "address",
                    "name": "referrer",
                    "type": "address"
                },
                {
                    "internalType": "uint256",
                    "name": "partnersCount",
                    "type": "uint256"
                }
            ],
            "stateMutability": "view",
            "type": "function"
        },
        {
            "stateMutability": "payable",
            "type": "receive"
        }
    ],
    "bytecode": "0x608060405260026004553480156200001657600080fd5b50604051620046e0380380620046e083398181016040528101906200003c919062000314565b6658d15e1762800060066000600160ff168152602001908152602001600020819055506000600290505b600c60ff168160ff1611620000de576002600660006001846200008a9190620003a1565b60ff1660ff16815260200190815260200160002054620000ab919062000340565b600660008360ff1660ff168152602001908152602001600020819055508080620000d59062000427565b91505062000066565b5080600560006101000a81548173ffffffffffffffffffffffffffffffffffffffff021916908373ffffffffffffffffffffffffffffffffffffffff16021790555060008060008373ffffffffffffffffffffffffffffffffffffffff1673ffffffffffffffffffffffffffffffffffffffff16815260200190815260200160002090506001816000018190555060008160010160006101000a81548173ffffffffffffffffffffffffffffffffffffffff021916908373ffffffffffffffffffffffffffffffffffffffff1602179055506000816002018190555081600160006001815260200190815260200160002060006101000a81548173ffffffffffffffffffffffffffffffffffffffff021916908373ffffffffffffffffffffffffffffffffffffffff1602179055506000600190505b600c60ff168160ff1611620002a15760018260030160008360ff1660ff16815260200190815260200160002060006101000a81548160ff02191690831515021790555060018260040160008360ff1660ff16815260200190815260200160002060006101000a81548160ff0219169083151502179055508080620002989062000427565b91505062000214565b5081600260006001815260200190815260200160002060006101000a81548173ffffffffffffffffffffffffffffffffffffffff021916908373ffffffffffffffffffffffffffffffffffffffff16021790555050506200049f565b6000815190506200030e8162000485565b92915050565b6000602082840312156200032757600080fd5b60006200033784828501620002fd565b91505092915050565b60006200034d8262000410565b91506200035a8362000410565b9250817fffffffffffffffffffffffffffffffffffffffffffffffffffffffffffffffff048311821515161562000396576200039562000456565b5b828202905092915050565b6000620003ae826200041a565b9150620003bb836200041a565b925082821015620003d157620003d062000456565b5b828203905092915050565b6000620003e982620003f0565b9050919050565b600073ffffffffffffffffffffffffffffffffffffffff82169050919050565b6000819050919050565b600060ff82169050919050565b600062000434826200041a565b915060ff8214156200044b576200044a62000456565b5b600182019050919050565b7f4e487b7100000000000000000000000000000000000000000000000000000000600052601160045260246000fd5b6200049081620003dc565b81146200049c57600080fd5b50565b61423180620004af6000396000f3fe6080604052600436106100c65760003560e01c8063797eee241161007f578063be389d5711610059578063be389d57146102a2578063e06e8dbd146102be578063ecabdf79146102fb578063fa45323d14610338576100cd565b8063797eee241461021c5780638da5cb5b14610238578063a87430ba14610263576100cd565b806327e235e3146100d257806329c704001461010f5780632a2d0c471461013a578063348d4487146101775780634635fd68146101a2578063509222cd146101df576100cd565b366100cd57005b600080fd5b3480156100de57600080fd5b506100f960048036038101906100f4919061366b565b610375565b6040516101069190613c9a565b60405180910390f35b34801561011b57600080fd5b5061012461038d565b6040516101319190613cec565b60405180910390f35b34801561014657600080fd5b50610161600480360381019061015c91906136d0565b610392565b60405161016e9190613952565b60405180910390f35b34801561018357600080fd5b5061018c6103c5565b6040516101999190613c9a565b60405180910390f35b3480156101ae57600080fd5b506101c960048036038101906101c491906136d0565b6103cb565b6040516101d69190613952565b60405180910390f35b3480156101eb57600080fd5b506102066004803603810190610201919061366b565b6103fe565b604051610213919061396d565b60405180910390f35b6102366004803603810190610231919061366b565b61044c565b005b34801561024457600080fd5b5061024d610459565b60405161025a9190613952565b60405180910390f35b34801561026f57600080fd5b5061028a6004803603810190610285919061366b565b61047f565b60405161029993929190613cb5565b60405180910390f35b6102bc60048036038101906102b79190613722565b6104c9565b005b3480156102ca57600080fd5b506102e560048036038101906102e09190613694565b610bf1565b6040516102f29190613952565b60405180910390f35b34801561030757600080fd5b50610322600480360381019061031d91906136f9565b610da6565b60405161032f9190613c9a565b60405180910390f35b34801561034457600080fd5b5061035f600480360381019061035a9190613694565b610dbe565b60405161036c9190613952565b60405180910390f35b60036020528060005260406000206000915090505481565b600c81565b60016020528060005260406000206000915054906101000a900473ffffffffffffffffffffffffffffffffffffffff1681565b60045481565b60026020528060005260406000206000915054906101000a900473ffffffffffffffffffffffffffffffffffffffff1681565b6000806000808473ffffffffffffffffffffffffffffffffffffffff1673ffffffffffffffffffffffffffffffffffffffff1681526020019081526020016000206000015414159050919050565b6104563382610f73565b50565b600560009054906101000a900473ffffffffffffffffffffffffffffffffffffffff1681565b60006020528060005260406000206000915090508060000154908060010160009054906101000a900473ffffffffffffffffffffffffffffffffffffffff16908060020154905083565b6104d2336103fe565b610511576040517f08c379a000000000000000000000000000000000000000000000000000000000815260040161050890613c1a565b60405180910390fd5b60018260ff161480610526575060028260ff16145b610565576040517f08c379a000000000000000000000000000000000000000000000000000000000815260040161055c90613bda565b60405180910390fd5b600660008260ff1660ff1681526020019081526020016000205434146105c0576040517f08c379a00000000000000000000000000000000000000000000000000000000081526004016105b790613bba565b60405180910390fd5b60018160ff161180156105da5750600c60ff168160ff1611155b610619576040517f08c379a000000000000000000000000000000000000000000000000000000000815260040161061090613b9a565b60405180910390fd5b60018260ff161415610958576000803373ffffffffffffffffffffffffffffffffffffffff1673ffffffffffffffffffffffffffffffffffffffff16815260200190815260200160002060030160008260ff1660ff16815260200190815260200160002060009054906101000a900460ff16156106cb576040517f08c379a00000000000000000000000000000000000000000000000000000000081526004016106c290613c7a565b60405180910390fd5b6000803373ffffffffffffffffffffffffffffffffffffffff1673ffffffffffffffffffffffffffffffffffffffff168152602001908152602001600020600501600060018361071b9190613e30565b60ff1660ff16815260200190815260200160002060020160009054906101000a900460ff16156107c65760008060003373ffffffffffffffffffffffffffffffffffffffff1673ffffffffffffffffffffffffffffffffffffffff16815260200190815260200160002060050160006001846107979190613e30565b60ff1660ff16815260200190815260200160002060020160006101000a81548160ff0219169083151502179055505b60006107d23383610dbe565b9050806000803373ffffffffffffffffffffffffffffffffffffffff1673ffffffffffffffffffffffffffffffffffffffff16815260200190815260200160002060050160008460ff1660ff16815260200190815260200160002060000160006101000a81548173ffffffffffffffffffffffffffffffffffffffff021916908373ffffffffffffffffffffffffffffffffffffffff16021790555060016000803373ffffffffffffffffffffffffffffffffffffffff1673ffffffffffffffffffffffffffffffffffffffff16815260200190815260200160002060030160008460ff1660ff16815260200190815260200160002060006101000a81548160ff0219169083151502179055506108ea33828461142c565b8073ffffffffffffffffffffffffffffffffffffffff163373ffffffffffffffffffffffffffffffffffffffff167f18a92df19fd94d6cfff209966673a5ca05a1c8e2bb68e097fce2bdc2ed81111960018560405161094a929190613988565b60405180910390a350610bed565b6000803373ffffffffffffffffffffffffffffffffffffffff1673ffffffffffffffffffffffffffffffffffffffff16815260200190815260200160002060040160008260ff1660ff16815260200190815260200160002060009054906101000a900460ff16156109fe576040517f08c379a00000000000000000000000000000000000000000000000000000000081526004016109f590613c7a565b60405180910390fd5b6000803373ffffffffffffffffffffffffffffffffffffffff1673ffffffffffffffffffffffffffffffffffffffff1681526020019081526020016000206006016000600183610a4e9190613e30565b60ff1660ff16815260200190815260200160002060030160009054906101000a900460ff1615610af95760008060003373ffffffffffffffffffffffffffffffffffffffff1673ffffffffffffffffffffffffffffffffffffffff1681526020019081526020016000206006016000600184610aca9190613e30565b60ff1660ff16815260200190815260200160002060030160006101000a81548160ff0219169083151502179055505b6000610b053383610bf1565b905060016000803373ffffffffffffffffffffffffffffffffffffffff1673ffffffffffffffffffffffffffffffffffffffff16815260200190815260200160002060040160008460ff1660ff16815260200190815260200160002060006101000a81548160ff021916908315150217905550610b83338284611c8b565b8073ffffffffffffffffffffffffffffffffffffffff163373ffffffffffffffffffffffffffffffffffffffff167f18a92df19fd94d6cfff209966673a5ca05a1c8e2bb68e097fce2bdc2ed811119600285604051610be3929190613a1f565b60405180910390a3505b5050565b6000808390505b600115610d9e576000808060008473ffffffffffffffffffffffffffffffffffffffff1673ffffffffffffffffffffffffffffffffffffffff16815260200190815260200160002060010160009054906101000a900473ffffffffffffffffffffffffffffffffffffffff1673ffffffffffffffffffffffffffffffffffffffff1673ffffffffffffffffffffffffffffffffffffffff16815260200190815260200160002060040160008460ff1660ff16815260200190815260200160002060009054906101000a900460ff1615610d35576000808273ffffffffffffffffffffffffffffffffffffffff1673ffffffffffffffffffffffffffffffffffffffff16815260200190815260200160002060010160009054906101000a900473ffffffffffffffffffffffffffffffffffffffff16915050610da0565b6000808273ffffffffffffffffffffffffffffffffffffffff1673ffffffffffffffffffffffffffffffffffffffff16815260200190815260200160002060010160009054906101000a900473ffffffffffffffffffffffffffffffffffffffff169050610bf8565b505b92915050565b60066020528060005260406000206000915090505481565b6000808390505b600115610f6b576000808060008473ffffffffffffffffffffffffffffffffffffffff1673ffffffffffffffffffffffffffffffffffffffff16815260200190815260200160002060010160009054906101000a900473ffffffffffffffffffffffffffffffffffffffff1673ffffffffffffffffffffffffffffffffffffffff1673ffffffffffffffffffffffffffffffffffffffff16815260200190815260200160002060030160008460ff1660ff16815260200190815260200160002060009054906101000a900460ff1615610f02576000808273ffffffffffffffffffffffffffffffffffffffff1673ffffffffffffffffffffffffffffffffffffffff16815260200190815260200160002060010160009054906101000a900473ffffffffffffffffffffffffffffffffffffffff16915050610f6d565b6000808273ffffffffffffffffffffffffffffffffffffffff1673ffffffffffffffffffffffffffffffffffffffff16815260200190815260200160002060010160009054906101000a900473ffffffffffffffffffffffffffffffffffffffff169050610dc5565b505b92915050565b66b1a2bc2ec500003414610fbc576040517f08c379a0000000000000000000000000000000000000000000000000000000008152600401610fb390613b5a565b60405180910390fd5b610fc5826103fe565b15611005576040517f08c379a0000000000000000000000000000000000000000000000000000000008152600401610ffc90613b7a565b60405180910390fd5b61100e816103fe565b61104d576040517f08c379a000000000000000000000000000000000000000000000000000000000815260040161104490613bfa565b60405180910390fd5b6000823b905060008163ffffffff161461109c576040517f08c379a000000000000000000000000000000000000000000000000000000000815260040161109390613c3a565b60405180910390fd5b60008060008573ffffffffffffffffffffffffffffffffffffffff1673ffffffffffffffffffffffffffffffffffffffff16815260200190815260200160002090506004548160000181905550828160010160006101000a81548173ffffffffffffffffffffffffffffffffffffffff021916908373ffffffffffffffffffffffffffffffffffffffff160217905550600081600201819055508360016000600454815260200190815260200160002060006101000a81548173ffffffffffffffffffffffffffffffffffffffff021916908373ffffffffffffffffffffffffffffffffffffffff1602179055506001816003016000600160ff16815260200190815260200160002060006101000a81548160ff0219169083151502179055506001816004016000600160ff16815260200190815260200160002060006101000a81548160ff0219169083151502179055508360026000600454815260200190815260200160002060006101000a81548173ffffffffffffffffffffffffffffffffffffffff021916908373ffffffffffffffffffffffffffffffffffffffff1602179055506004600081548092919061125590613f25565b91905055506000808473ffffffffffffffffffffffffffffffffffffffff1673ffffffffffffffffffffffffffffffffffffffff16815260200190815260200160002060020160008154809291906112ac90613f25565b919050555060006112be856001610dbe565b905080826005016000600160ff16815260200190815260200160002060000160006101000a81548173ffffffffffffffffffffffffffffffffffffffff021916908373ffffffffffffffffffffffffffffffffffffffff1602179055506113278582600161142c565b61133d85611336876001610bf1565b6001611c8b565b6000808673ffffffffffffffffffffffffffffffffffffffff1673ffffffffffffffffffffffffffffffffffffffff168152602001908152602001600020600001548473ffffffffffffffffffffffffffffffffffffffff168673ffffffffffffffffffffffffffffffffffffffff167f309bb360e8b69c23937ccc5fb01f9aeeead1c95a99604e175113ff82f2b1723a6000808973ffffffffffffffffffffffffffffffffffffffff1673ffffffffffffffffffffffffffffffffffffffff1681526020019081526020016000206000015460405161141d9190613c9a565b60405180910390a45050505050565b6000808373ffffffffffffffffffffffffffffffffffffffff1673ffffffffffffffffffffffffffffffffffffffff16815260200190815260200160002060050160008260ff1660ff168152602001908152602001600020600101839080600181540180825580915050600190039060005260206000200160009091909190916101000a81548173ffffffffffffffffffffffffffffffffffffffff021916908373ffffffffffffffffffffffffffffffffffffffff16021790555060036000808473ffffffffffffffffffffffffffffffffffffffff1673ffffffffffffffffffffffffffffffffffffffff16815260200190815260200160002060050160008360ff1660ff168152602001908152602001600020600101805490501015611629578173ffffffffffffffffffffffffffffffffffffffff168373ffffffffffffffffffffffffffffffffffffffff167f68062c5925c4317adf3a7095478d28b33fd8b41458bc7620b61bc46bf1b24d826001846000808873ffffffffffffffffffffffffffffffffffffffff1673ffffffffffffffffffffffffffffffffffffffff16815260200190815260200160002060050160008760ff1660ff1681526020019081526020016000206001018054905060405161160f939291906139e8565b60405180910390a36116248284600184612e7c565b611c86565b8173ffffffffffffffffffffffffffffffffffffffff168373ffffffffffffffffffffffffffffffffffffffff167f68062c5925c4317adf3a7095478d28b33fd8b41458bc7620b61bc46bf1b24d82600184600360405161168c939291906139b1565b60405180910390a3600067ffffffffffffffff8111156116d5577f4e487b7100000000000000000000000000000000000000000000000000000000600052604160045260246000fd5b6040519080825280602002602001820160405280156117035781602001602082028036833780820191505090505b506000808473ffffffffffffffffffffffffffffffffffffffff1673ffffffffffffffffffffffffffffffffffffffff16815260200190815260200160002060050160008360ff1660ff1681526020019081526020016000206001019080519060200190611772929190613585565b506000808373ffffffffffffffffffffffffffffffffffffffff1673ffffffffffffffffffffffffffffffffffffffff16815260200190815260200160002060030160006001836117c39190613d6e565b60ff1660ff16815260200190815260200160002060009054906101000a900460ff161580156117f95750600c60ff168160ff1614155b156118735760016000808473ffffffffffffffffffffffffffffffffffffffff1673ffffffffffffffffffffffffffffffffffffffff16815260200190815260200160002060050160008360ff1660ff16815260200190815260200160002060020160006101000a81548160ff0219169083151502179055505b600560009054906101000a900473ffffffffffffffffffffffffffffffffffffffff1673ffffffffffffffffffffffffffffffffffffffff168273ffffffffffffffffffffffffffffffffffffffff1614611b205760006118d48383610dbe565b90508073ffffffffffffffffffffffffffffffffffffffff166000808573ffffffffffffffffffffffffffffffffffffffff1673ffffffffffffffffffffffffffffffffffffffff16815260200190815260200160002060050160008460ff1660ff16815260200190815260200160002060000160009054906101000a900473ffffffffffffffffffffffffffffffffffffffff1673ffffffffffffffffffffffffffffffffffffffff1614611a1f57806000808573ffffffffffffffffffffffffffffffffffffffff1673ffffffffffffffffffffffffffffffffffffffff16815260200190815260200160002060050160008460ff1660ff16815260200190815260200160002060000160006101000a81548173ffffffffffffffffffffffffffffffffffffffff021916908373ffffffffffffffffffffffffffffffffffffffff1602179055505b6000808473ffffffffffffffffffffffffffffffffffffffff1673ffffffffffffffffffffffffffffffffffffffff16815260200190815260200160002060050160008360ff1660ff1681526020019081526020016000206003016000815480929190611a8b90613f25565b91905055508373ffffffffffffffffffffffffffffffffffffffff168173ffffffffffffffffffffffffffffffffffffffff168473ffffffffffffffffffffffffffffffffffffffff167fa00c953eff38ec1b71e7fe060b2ab8df0bbe5354319fbdde4fbdafd6324386a6600186604051611b07929190613988565b60405180910390a4611b1a83828461142c565b50611c85565b611b4f600560009054906101000a900473ffffffffffffffffffffffffffffffffffffffff1684600184612e7c565b600080600560009054906101000a900473ffffffffffffffffffffffffffffffffffffffff1673ffffffffffffffffffffffffffffffffffffffff1673ffffffffffffffffffffffffffffffffffffffff16815260200190815260200160002060050160008260ff1660ff1681526020019081526020016000206003016000815480929190611bdd90613f25565b91905055508273ffffffffffffffffffffffffffffffffffffffff16600073ffffffffffffffffffffffffffffffffffffffff16600560009054906101000a900473ffffffffffffffffffffffffffffffffffffffff1673ffffffffffffffffffffffffffffffffffffffff167fa00c953eff38ec1b71e7fe060b2ab8df0bbe5354319fbdde4fbdafd6324386a6600185604051611c7c929190613988565b60405180910390a45b5b505050565b6000808373ffffffffffffffffffffffffffffffffffffffff1673ffffffffffffffffffffffffffffffffffffffff16815260200190815260200160002060040160008260ff1660ff16815260200190815260200160002060009054906101000a900460ff16611d30576040517f08c379a0000000000000000000000000000000000000000000000000000000008152600401611d2790613c5a565b60405180910390fd5b60026000808473ffffffffffffffffffffffffffffffffffffffff1673ffffffffffffffffffffffffffffffffffffffff16815260200190815260200160002060060160008360ff1660ff1681526020019081526020016000206001018054905010156127fc576000808373ffffffffffffffffffffffffffffffffffffffff1673ffffffffffffffffffffffffffffffffffffffff16815260200190815260200160002060060160008260ff1660ff168152602001908152602001600020600101839080600181540180825580915050600190039060005260206000200160009091909190916101000a81548173ffffffffffffffffffffffffffffffffffffffff021916908373ffffffffffffffffffffffffffffffffffffffff1602179055508173ffffffffffffffffffffffffffffffffffffffff168373ffffffffffffffffffffffffffffffffffffffff167f68062c5925c4317adf3a7095478d28b33fd8b41458bc7620b61bc46bf1b24d826002846000808873ffffffffffffffffffffffffffffffffffffffff1673ffffffffffffffffffffffffffffffffffffffff16815260200190815260200160002060060160008760ff1660ff16815260200190815260200160002060010180549050604051611f1393929190613a7f565b60405180910390a3816000808573ffffffffffffffffffffffffffffffffffffffff1673ffffffffffffffffffffffffffffffffffffffff16815260200190815260200160002060060160008360ff1660ff16815260200190815260200160002060000160006101000a81548173ffffffffffffffffffffffffffffffffffffffff021916908373ffffffffffffffffffffffffffffffffffffffff160217905550600560009054906101000a900473ffffffffffffffffffffffffffffffffffffffff1673ffffffffffffffffffffffffffffffffffffffff168273ffffffffffffffffffffffffffffffffffffffff16141561201d576120188284600284612e7c565b612e77565b60008060008473ffffffffffffffffffffffffffffffffffffffff1673ffffffffffffffffffffffffffffffffffffffff16815260200190815260200160002060060160008360ff1660ff16815260200190815260200160002060000160009054906101000a900473ffffffffffffffffffffffffffffffffffffffff1690506000808273ffffffffffffffffffffffffffffffffffffffff1673ffffffffffffffffffffffffffffffffffffffff16815260200190815260200160002060060160008360ff1660ff168152602001908152602001600020600201849080600181540180825580915050600190039060005260206000200160009091909190916101000a81548173ffffffffffffffffffffffffffffffffffffffff021916908373ffffffffffffffffffffffffffffffffffffffff16021790555060008060008373ffffffffffffffffffffffffffffffffffffffff1673ffffffffffffffffffffffffffffffffffffffff16815260200190815260200160002060060160008460ff1660ff16815260200190815260200160002060010180549050905060028114801561222a575060046000808473ffffffffffffffffffffffffffffffffffffffff1673ffffffffffffffffffffffffffffffffffffffff16815260200190815260200160002060060160008560ff1660ff16815260200190815260200160002060020180549050145b15612713578173ffffffffffffffffffffffffffffffffffffffff168573ffffffffffffffffffffffffffffffffffffffff167f68062c5925c4317adf3a7095478d28b33fd8b41458bc7620b61bc46bf1b24d82600286600660405161229293929190613a48565b60405180910390a3600067ffffffffffffffff8111156122db577f4e487b7100000000000000000000000000000000000000000000000000000000600052604160045260246000fd5b6040519080825280602002602001820160405280156123095781602001602082028036833780820191505090505b506000808473ffffffffffffffffffffffffffffffffffffffff1673ffffffffffffffffffffffffffffffffffffffff16815260200190815260200160002060060160008560ff1660ff1681526020019081526020016000206001019080519060200190612378929190613585565b50600067ffffffffffffffff8111156123ba577f4e487b7100000000000000000000000000000000000000000000000000000000600052604160045260246000fd5b6040519080825280602002602001820160405280156123e85781602001602082028036833780820191505090505b506000808473ffffffffffffffffffffffffffffffffffffffff1673ffffffffffffffffffffffffffffffffffffffff16815260200190815260200160002060060160008560ff1660ff1681526020019081526020016000206002019080519060200190612457929190613585565b50846000808473ffffffffffffffffffffffffffffffffffffffff1673ffffffffffffffffffffffffffffffffffffffff16815260200190815260200160002060060160008560ff1660ff16815260200190815260200160002060050160006101000a81548173ffffffffffffffffffffffffffffffffffffffff021916908373ffffffffffffffffffffffffffffffffffffffff1602179055506000808373ffffffffffffffffffffffffffffffffffffffff1673ffffffffffffffffffffffffffffffffffffffff16815260200190815260200160002060040160006001856125429190613d6e565b60ff1660ff16815260200190815260200160002060009054906101000a900460ff161580156125785750600c60ff168360ff1614155b156125f25760016000808473ffffffffffffffffffffffffffffffffffffffff1673ffffffffffffffffffffffffffffffffffffffff16815260200190815260200160002060060160008560ff1660ff16815260200190815260200160002060030160006101000a81548160ff0219169083151502179055505b60006125fe8385610bf1565b9050806000808573ffffffffffffffffffffffffffffffffffffffff1673ffffffffffffffffffffffffffffffffffffffff16815260200190815260200160002060060160008660ff1660ff16815260200190815260200160002060000160006101000a81548173ffffffffffffffffffffffffffffffffffffffff021916908373ffffffffffffffffffffffffffffffffffffffff1602179055508073ffffffffffffffffffffffffffffffffffffffff168373ffffffffffffffffffffffffffffffffffffffff167ffc0cb63f8dbd6b20ceb84a3c5358a41576a1479e6ecd040b4b985525dc09a7096002876040516126fa929190613a1f565b60405180910390a361270d838286611c8b565b506127e8565b8173ffffffffffffffffffffffffffffffffffffffff168573ffffffffffffffffffffffffffffffffffffffff167f68062c5925c4317adf3a7095478d28b33fd8b41458bc7620b61bc46bf1b24d8260028660026000808973ffffffffffffffffffffffffffffffffffffffff1673ffffffffffffffffffffffffffffffffffffffff16815260200190815260200160002060060160008a60ff1660ff168152602001908152602001600020600101805490506127d09190613d6e565b6040516127df93929190613a7f565b60405180910390a35b6127f58486600286612e7c565b5050612e77565b6000808373ffffffffffffffffffffffffffffffffffffffff1673ffffffffffffffffffffffffffffffffffffffff16815260200190815260200160002060060160008260ff1660ff168152602001908152602001600020600201839080600181540180825580915050600190039060005260206000200160009091909190916101000a81548173ffffffffffffffffffffffffffffffffffffffff021916908373ffffffffffffffffffffffffffffffffffffffff16021790555060046000808473ffffffffffffffffffffffffffffffffffffffff1673ffffffffffffffffffffffffffffffffffffffff16815260200190815260200160002060060160008360ff1660ff168152602001908152602001600020600201805490501415612e76578173ffffffffffffffffffffffffffffffffffffffff168373ffffffffffffffffffffffffffffffffffffffff167f68062c5925c4317adf3a7095478d28b33fd8b41458bc7620b61bc46bf1b24d82600284600660405161298293929190613a48565b60405180910390a360006129968383610bf1565b90508073ffffffffffffffffffffffffffffffffffffffff168373ffffffffffffffffffffffffffffffffffffffff167ffc0cb63f8dbd6b20ceb84a3c5358a41576a1479e6ecd040b4b985525dc09a7096002856040516129f8929190613a1f565b60405180910390a3600067ffffffffffffffff811115612a41577f4e487b7100000000000000000000000000000000000000000000000000000000600052604160045260246000fd5b604051908082528060200260200182016040528015612a6f5781602001602082028036833780820191505090505b506000808573ffffffffffffffffffffffffffffffffffffffff1673ffffffffffffffffffffffffffffffffffffffff16815260200190815260200160002060060160008460ff1660ff1681526020019081526020016000206001019080519060200190612ade929190613585565b50600067ffffffffffffffff811115612b20577f4e487b7100000000000000000000000000000000000000000000000000000000600052604160045260246000fd5b604051908082528060200260200182016040528015612b4e5781602001602082028036833780820191505090505b506000808573ffffffffffffffffffffffffffffffffffffffff1673ffffffffffffffffffffffffffffffffffffffff16815260200190815260200160002060060160008460ff1660ff1681526020019081526020016000206002019080519060200190612bbd929190613585565b50836000808573ffffffffffffffffffffffffffffffffffffffff1673ffffffffffffffffffffffffffffffffffffffff16815260200190815260200160002060060160008460ff1660ff16815260200190815260200160002060050160006101000a81548173ffffffffffffffffffffffffffffffffffffffff021916908373ffffffffffffffffffffffffffffffffffffffff1602179055506000808473ffffffffffffffffffffffffffffffffffffffff1673ffffffffffffffffffffffffffffffffffffffff1681526020019081526020016000206004016000600184612ca89190613d6e565b60ff1660ff16815260200190815260200160002060009054906101000a900460ff16158015612cde5750600c60ff168260ff1614155b15612d585760016000808573ffffffffffffffffffffffffffffffffffffffff1673ffffffffffffffffffffffffffffffffffffffff16815260200190815260200160002060060160008460ff1660ff16815260200190815260200160002060030160006101000a81548160ff0219169083151502179055505b6000612d648484610bf1565b9050806000808673ffffffffffffffffffffffffffffffffffffffff1673ffffffffffffffffffffffffffffffffffffffff16815260200190815260200160002060060160008560ff1660ff16815260200190815260200160002060000160006101000a81548173ffffffffffffffffffffffffffffffffffffffff021916908373ffffffffffffffffffffffffffffffffffffffff1602179055508073ffffffffffffffffffffffffffffffffffffffff168473ffffffffffffffffffffffffffffffffffffffff167ffc0cb63f8dbd6b20ceb84a3c5358a41576a1479e6ecd040b4b985525dc09a709600286604051612e60929190613a1f565b60405180910390a3612e73848285611c8b565b50505b5b505050565b60018260ff161480612e91575060028260ff16145b612ed0576040517f08c379a0000000000000000000000000000000000000000000000000000000008152600401612ec790613bda565b60405180910390fd5b600084905060005b600c8160ff16101561357d576000808373ffffffffffffffffffffffffffffffffffffffff1673ffffffffffffffffffffffffffffffffffffffff16815260200190815260200160002060010160009054906101000a900473ffffffffffffffffffffffffffffffffffffffff169150600073ffffffffffffffffffffffffffffffffffffffff168273ffffffffffffffffffffffffffffffffffffffff161415612f825761357d565b60008160ff16141561307e57600a6003600660008660ff1660ff16815260200190815260200160002054612fb69190613dd6565b612fc09190613da5565b600360008473ffffffffffffffffffffffffffffffffffffffff1673ffffffffffffffffffffffffffffffffffffffff168152602001908152602001600020600082825461300e9190613d18565b925050819055508473ffffffffffffffffffffffffffffffffffffffff168273ffffffffffffffffffffffffffffffffffffffff167ff0ddc65c0d411f042f723dcfa1b7d13e85a35b7b70761d447c6500411cacf328600186604051613075929190613988565b60405180910390a35b60018160ff16141561317a57600a6003600660008660ff1660ff168152602001908152602001600020546130b29190613dd6565b6130bc9190613da5565b600360008473ffffffffffffffffffffffffffffffffffffffff1673ffffffffffffffffffffffffffffffffffffffff168152602001908152602001600020600082825461310a9190613d18565b925050819055508473ffffffffffffffffffffffffffffffffffffffff168273ffffffffffffffffffffffffffffffffffffffff167ff0ddc65c0d411f042f723dcfa1b7d13e85a35b7b70761d447c6500411cacf328600286604051613171929190613a1f565b60405180910390a35b60028160ff16141561327657600a6003600660008660ff1660ff168152602001908152602001600020546131ae9190613dd6565b6131b89190613da5565b600360008473ffffffffffffffffffffffffffffffffffffffff1673ffffffffffffffffffffffffffffffffffffffff16815260200190815260200160002060008282546132069190613d18565b925050819055508473ffffffffffffffffffffffffffffffffffffffff168273ffffffffffffffffffffffffffffffffffffffff167ff0ddc65c0d411f042f723dcfa1b7d13e85a35b7b70761d447c6500411cacf32860038660405161326d929190613ab6565b60405180910390a35b60038160ff16141561337257600a6003600660008660ff1660ff168152602001908152602001600020546132aa9190613dd6565b6132b49190613da5565b600360008473ffffffffffffffffffffffffffffffffffffffff1673ffffffffffffffffffffffffffffffffffffffff16815260200190815260200160002060008282546133029190613d18565b925050819055508473ffffffffffffffffffffffffffffffffffffffff168273ffffffffffffffffffffffffffffffffffffffff167ff0ddc65c0d411f042f723dcfa1b7d13e85a35b7b70761d447c6500411cacf328600486604051613369929190613adf565b60405180910390a35b60048160ff16141561346e57600a6003600660008660ff1660ff168152602001908152602001600020546133a69190613dd6565b6133b09190613da5565b600360008473ffffffffffffffffffffffffffffffffffffffff1673ffffffffffffffffffffffffffffffffffffffff16815260200190815260200160002060008282546133fe9190613d18565b925050819055508473ffffffffffffffffffffffffffffffffffffffff168273ffffffffffffffffffffffffffffffffffffffff167ff0ddc65c0d411f042f723dcfa1b7d13e85a35b7b70761d447c6500411cacf328600586604051613465929190613b08565b60405180910390a35b60058160ff16141561356a57600a6003600660008660ff1660ff168152602001908152602001600020546134a29190613dd6565b6134ac9190613da5565b600360008473ffffffffffffffffffffffffffffffffffffffff1673ffffffffffffffffffffffffffffffffffffffff16815260200190815260200160002060008282546134fa9190613d18565b925050819055508473ffffffffffffffffffffffffffffffffffffffff168273ffffffffffffffffffffffffffffffffffffffff167ff0ddc65c0d411f042f723dcfa1b7d13e85a35b7b70761d447c6500411cacf328600686604051613561929190613b31565b60405180910390a35b808061357590613f6e565b915050612ed8565b505050505050565b8280548282559060005260206000209081019282156135fe579160200282015b828111156135fd5782518260006101000a81548173ffffffffffffffffffffffffffffffffffffffff021916908373ffffffffffffffffffffffffffffffffffffffff160217905550916020019190600101906135a5565b5b50905061360b919061360f565b5090565b5b80821115613628576000816000905550600101613610565b5090565b60008135905061363b816141b6565b92915050565b600081359050613650816141cd565b92915050565b600081359050613665816141e4565b92915050565b60006020828403121561367d57600080fd5b600061368b8482850161362c565b91505092915050565b600080604083850312156136a757600080fd5b60006136b58582860161362c565b92505060206136c685828601613656565b9150509250929050565b6000602082840312156136e257600080fd5b60006136f084828501613641565b91505092915050565b60006020828403121561370b57600080fd5b600061371984828501613656565b91505092915050565b6000806040838503121561373557600080fd5b600061374385828601613656565b925050602061375485828601613656565b9150509250929050565b61376781613e64565b82525050565b61377681613e76565b82525050565b61378581613eb9565b82525050565b61379481613ecb565b82525050565b6137a381613edd565b82525050565b6137b281613eef565b82525050565b6137c181613f01565b82525050565b6137d081613f13565b82525050565b60006137e3601683613d07565b91506137ee82613ff6565b602082019050919050565b6000613806600b83613d07565b91506138118261401f565b602082019050919050565b6000613829600d83613d07565b915061383482614048565b602082019050919050565b600061384c600d83613d07565b915061385782614071565b602082019050919050565b600061386f600e83613d07565b915061387a8261409a565b602082019050919050565b6000613892601383613d07565b915061389d826140c3565b602082019050919050565b60006138b5602383613d07565b91506138c0826140ec565b604082019050919050565b60006138d8601483613d07565b91506138e38261413b565b602082019050919050565b60006138fb601f83613d07565b915061390682614164565b602082019050919050565b600061391e601783613d07565b91506139298261418d565b602082019050919050565b61393d81613ea2565b82525050565b61394c81613eac565b82525050565b6000602082019050613967600083018461375e565b92915050565b6000602082019050613982600083018461376d565b92915050565b600060408201905061399d600083018561377c565b6139aa6020830184613943565b9392505050565b60006060820190506139c6600083018661377c565b6139d36020830185613943565b6139e0604083018461379a565b949350505050565b60006060820190506139fd600083018661377c565b613a0a6020830185613943565b613a176040830184613943565b949350505050565b6000604082019050613a34600083018561378b565b613a416020830184613943565b9392505050565b6000606082019050613a5d600083018661378b565b613a6a6020830185613943565b613a7760408301846137c7565b949350505050565b6000606082019050613a94600083018661378b565b613aa16020830185613943565b613aae6040830184613943565b949350505050565b6000604082019050613acb600083018561379a565b613ad86020830184613943565b9392505050565b6000604082019050613af460008301856137a9565b613b016020830184613943565b9392505050565b6000604082019050613b1d60008301856137b8565b613b2a6020830184613943565b9392505050565b6000604082019050613b4660008301856137c7565b613b536020830184613943565b9392505050565b60006020820190508181036000830152613b73816137d6565b9050919050565b60006020820190508181036000830152613b93816137f9565b9050919050565b60006020820190508181036000830152613bb38161381c565b9050919050565b60006020820190508181036000830152613bd38161383f565b9050919050565b60006020820190508181036000830152613bf381613862565b9050919050565b60006020820190508181036000830152613c1381613885565b9050919050565b60006020820190508181036000830152613c33816138a8565b9050919050565b60006020820190508181036000830152613c53816138cb565b9050919050565b60006020820190508181036000830152613c73816138ee565b9050919050565b60006020820190508181036000830152613c9381613911565b9050919050565b6000602082019050613caf6000830184613934565b92915050565b6000606082019050613cca6000830186613934565b613cd7602083018561375e565b613ce46040830184613934565b949350505050565b6000602082019050613d016000830184613943565b92915050565b600082825260208201905092915050565b6000613d2382613ea2565b9150613d2e83613ea2565b9250827fffffffffffffffffffffffffffffffffffffffffffffffffffffffffffffffff03821115613d6357613d62613f98565b5b828201905092915050565b6000613d7982613eac565b9150613d8483613eac565b92508260ff03821115613d9a57613d99613f98565b5b828201905092915050565b6000613db082613ea2565b9150613dbb83613ea2565b925082613dcb57613dca613fc7565b5b828204905092915050565b6000613de182613ea2565b9150613dec83613ea2565b9250817fffffffffffffffffffffffffffffffffffffffffffffffffffffffffffffffff0483118215151615613e2557613e24613f98565b5b828202905092915050565b6000613e3b82613eac565b9150613e4683613eac565b925082821015613e5957613e58613f98565b5b828203905092915050565b6000613e6f82613e82565b9050919050565b60008115159050919050565b600073ffffffffffffffffffffffffffffffffffffffff82169050919050565b6000819050919050565b600060ff82169050919050565b6000613ec482613eac565b9050919050565b6000613ed682613eac565b9050919050565b6000613ee882613eac565b9050919050565b6000613efa82613eac565b9050919050565b6000613f0c82613eac565b9050919050565b6000613f1e82613eac565b9050919050565b6000613f3082613ea2565b91507fffffffffffffffffffffffffffffffffffffffffffffffffffffffffffffffff821415613f6357613f62613f98565b5b600182019050919050565b6000613f7982613eac565b915060ff821415613f8d57613f8c613f98565b5b600182019050919050565b7f4e487b7100000000000000000000000000000000000000000000000000000000600052601160045260246000fd5b7f4e487b7100000000000000000000000000000000000000000000000000000000600052601260045260246000fd5b7f726567697374726174696f6e20636f737420302e303500000000000000000000600082015250565b7f7573657220657869737473000000000000000000000000000000000000000000600082015250565b7f696e76616c6964206c6576656c00000000000000000000000000000000000000600082015250565b7f696e76616c696420707269636500000000000000000000000000000000000000600082015250565b7f696e76616c6964206d6174726978000000000000000000000000000000000000600082015250565b7f7265666572726572206e6f742065786973747300000000000000000000000000600082015250565b7f75736572206973206e6f74206578697374732e2052656769737465722066697260008201527f73742e0000000000000000000000000000000000000000000000000000000000602082015250565b7f63616e6e6f74206265206120636f6e7472616374000000000000000000000000600082015250565b7f3530302e205265666572726572206c6576656c20697320696e61637469766500600082015250565b7f6c6576656c20616c726561647920616374697661746564000000000000000000600082015250565b6141bf81613e64565b81146141ca57600080fd5b50565b6141d681613ea2565b81146141e157600080fd5b50565b6141ed81613eac565b81146141f857600080fd5b5056fea2646970667358221220b602f06b3ce563c3af10974219ce7ba9cd9d72ebf32c11a55c5ae533051e963664736f6c63430008040033",
    "linkReferences": {},
    "deployedLinkReferences": {}
}